{
  "contractName": "P2PLending",
  "abi": [
    {
      "anonymous": false,
      "inputs": [
        {
          "indexed": false,
          "internalType": "uint256",
          "name": "id",
          "type": "uint256"
        },
        {
          "indexed": false,
          "internalType": "address",
          "name": "lender",
          "type": "address"
        },
        {
          "indexed": false,
          "internalType": "address",
          "name": "walletAddress",
          "type": "address"
        }
      ],
      "name": "LoanFunded",
      "type": "event"
    },
    {
      "anonymous": false,
      "inputs": [
        {
          "indexed": false,
          "internalType": "uint256",
          "name": "id",
          "type": "uint256"
        },
        {
          "indexed": false,
          "internalType": "address",
          "name": "payer",
          "type": "address"
        },
        {
          "indexed": false,
          "internalType": "uint256",
          "name": "amount",
          "type": "uint256"
        }
      ],
      "name": "LoanPartiallyRepaid",
      "type": "event"
    },
    {
      "anonymous": false,
      "inputs": [
        {
          "indexed": false,
          "internalType": "uint256",
          "name": "id",
          "type": "uint256"
        },
        {
          "indexed": false,
          "internalType": "string",
          "name": "username",
          "type": "string"
        },
        {
          "indexed": false,
          "internalType": "address",
          "name": "walletAddress",
          "type": "address"
        },
        {
          "indexed": false,
          "internalType": "uint256",
          "name": "amount",
          "type": "uint256"
        },
        {
          "indexed": false,
          "internalType": "uint256",
          "name": "interestRate",
          "type": "uint256"
        },
        {
          "indexed": false,
          "internalType": "uint256",
          "name": "duration",
          "type": "uint256"
        },
        {
          "indexed": false,
          "internalType": "string",
          "name": "purpose",
          "type": "string"
        }
      ],
      "name": "LoanRequestCreated",
      "type": "event"
    },
    {
      "inputs": [
        {
          "internalType": "uint256",
          "name": "",
          "type": "uint256"
        }
      ],
      "name": "loanRequests",
      "outputs": [
        {
          "internalType": "uint256",
          "name": "id",
          "type": "uint256"
        },
        {
          "internalType": "string",
          "name": "username",
          "type": "string"
        },
        {
          "internalType": "address",
          "name": "walletAddress",
          "type": "address"
        },
        {
          "internalType": "uint256",
          "name": "amount",
          "type": "uint256"
        },
        {
          "internalType": "uint256",
          "name": "interestRate",
          "type": "uint256"
        },
        {
          "internalType": "uint256",
          "name": "duration",
          "type": "uint256"
        },
        {
          "internalType": "string",
          "name": "purpose",
          "type": "string"
        },
        {
          "internalType": "bool",
          "name": "funded",
          "type": "bool"
        },
        {
          "internalType": "uint256",
          "name": "startTime",
          "type": "uint256"
        },
        {
          "internalType": "uint256",
          "name": "monthlyPayment",
          "type": "uint256"
        },
        {
          "internalType": "uint256",
          "name": "remainingDebt",
          "type": "uint256"
        },
        {
          "internalType": "address",
          "name": "lender",
          "type": "address"
        }
      ],
      "stateMutability": "view",
      "type": "function",
      "constant": true
    },
    {
      "inputs": [],
      "name": "nextRequestId",
      "outputs": [
        {
          "internalType": "uint256",
          "name": "",
          "type": "uint256"
        }
      ],
      "stateMutability": "view",
      "type": "function",
      "constant": true
    },
    {
      "inputs": [
        {
          "internalType": "string",
          "name": "_username",
          "type": "string"
        },
        {
          "internalType": "address",
          "name": "_walletAddress",
          "type": "address"
        },
        {
          "internalType": "uint256",
          "name": "_amount",
          "type": "uint256"
        },
        {
          "internalType": "uint256",
          "name": "_interestRate",
          "type": "uint256"
        },
        {
          "internalType": "uint256",
          "name": "_duration",
          "type": "uint256"
        },
        {
          "internalType": "string",
          "name": "_purpose",
          "type": "string"
        }
      ],
      "name": "createLoanRequest",
      "outputs": [],
      "stateMutability": "nonpayable",
      "type": "function"
    },
    {
      "inputs": [
        {
          "internalType": "uint256",
          "name": "_id",
          "type": "uint256"
        }
      ],
      "name": "fundLoan",
      "outputs": [],
      "stateMutability": "payable",
      "type": "function",
      "payable": true
    },
    {
      "inputs": [
        {
          "internalType": "uint256",
          "name": "_id",
          "type": "uint256"
        }
      ],
      "name": "repayLoan",
      "outputs": [],
      "stateMutability": "payable",
      "type": "function",
      "payable": true
    },
    {
      "inputs": [
        {
          "internalType": "uint256",
          "name": "_id",
          "type": "uint256"
        }
      ],
      "name": "getLoanRequest",
      "outputs": [
        {
          "internalType": "uint256",
          "name": "id",
          "type": "uint256"
        },
        {
          "internalType": "string",
          "name": "username",
          "type": "string"
        },
        {
          "internalType": "address",
          "name": "walletAddress",
          "type": "address"
        },
        {
          "internalType": "uint256",
          "name": "amount",
          "type": "uint256"
        },
        {
          "internalType": "uint256",
          "name": "interestRate",
          "type": "uint256"
        },
        {
          "internalType": "uint256",
          "name": "duration",
          "type": "uint256"
        },
        {
          "internalType": "string",
          "name": "purpose",
          "type": "string"
        },
        {
          "internalType": "bool",
          "name": "funded",
          "type": "bool"
        },
        {
          "internalType": "uint256",
          "name": "startTime",
          "type": "uint256"
        },
        {
          "internalType": "uint256",
          "name": "monthlyPayment",
          "type": "uint256"
        },
        {
          "internalType": "uint256",
          "name": "remainingDebt",
          "type": "uint256"
        },
        {
          "internalType": "address",
          "name": "lender",
          "type": "address"
        }
      ],
      "stateMutability": "view",
      "type": "function",
      "constant": true
    },
    {
      "inputs": [],
      "name": "getNumLoanRequests",
      "outputs": [
        {
          "internalType": "uint256",
          "name": "",
          "type": "uint256"
        }
      ],
      "stateMutability": "view",
      "type": "function",
      "constant": true
    }
  ],
  "bytecode": "0x608060405234801561001057600080fd5b50611841806100206000396000f3fe6080604052600436106100705760003560e01c8063846b909a1161004e578063846b909a146101115780639e11d6c71461012d578063ab7b1c8914610158578063d1b332f41461017457610070565b80631b3b8671146100755780632cc58e81146100bd5780636a84a985146100e6575b600080fd5b34801561008157600080fd5b5061009c60048036038101906100979190610cf7565b6101bc565b6040516100b49c9b9a99989796959493929190610e28565b60405180910390f35b3480156100c957600080fd5b506100e460048036038101906100df9190611051565b6103ad565b005b3480156100f257600080fd5b506100fb6106db565b6040516101089190611116565b60405180910390f35b61012b60048036038101906101269190610cf7565b6106e1565b005b34801561013957600080fd5b506101426108d8565b60405161014f9190611116565b60405180910390f35b610172600480360381019061016d9190610cf7565b6108e1565b005b34801561018057600080fd5b5061019b60048036038101906101969190610cf7565b610a4d565b6040516101b39c9b9a99989796959493929190610e28565b60405180910390f35b600060606000806000806060600080600080600080600160008f815260200190815260200160002090508060000154816001018260020160009054906101000a900473ffffffffffffffffffffffffffffffffffffffff16836003015484600401548560050154866006018760070160009054906101000a900460ff16886008015489600901548a600a01548b600b0160009054906101000a900473ffffffffffffffffffffffffffffffffffffffff168a805461027990611160565b80601f01602080910402602001604051908101604052809291908181526020018280546102a590611160565b80156102f25780601f106102c7576101008083540402835291602001916102f2565b820191906000526020600020905b8154815290600101906020018083116102d557829003601f168201915b50505050509a5085805461030590611160565b80601f016020809104026020016040519081016040528092919081815260200182805461033190611160565b801561037e5780601f106103535761010080835404028352916020019161037e565b820191906000526020600020905b81548152906001019060200180831161036157829003601f168201915b505050505095509c509c509c509c509c509c509c509c509c509c509c509c505091939597999b5091939597999b565b600084116103f0576040517f08c379a00000000000000000000000000000000000000000000000000000000081526004016103e7906111de565b60405180910390fd5b60008311610433576040517f08c379a000000000000000000000000000000000000000000000000000000000815260040161042a90611270565b60405180910390fd5b60008211610476576040517f08c379a000000000000000000000000000000000000000000000000000000000815260040161046d90611302565b60405180910390fd5b600082606485876104879190611351565b61049191906113da565b8661049c919061140b565b6104a691906113da565b905060405180610180016040528060005481526020018881526020018773ffffffffffffffffffffffffffffffffffffffff16815260200186815260200185815260200184815260200183815260200160001515815260200160008152602001828152602001868152602001600073ffffffffffffffffffffffffffffffffffffffff168152506001600080548152602001908152602001600020600082015181600001556020820151816001019080519060200190610567929190610c0a565b5060408201518160020160006101000a81548173ffffffffffffffffffffffffffffffffffffffff021916908373ffffffffffffffffffffffffffffffffffffffff160217905550606082015181600301556080820151816004015560a0820151816005015560c08201518160060190805190602001906105e9929190610c0a565b5060e08201518160070160006101000a81548160ff0219169083151502179055506101008201518160080155610120820151816009015561014082015181600a015561016082015181600b0160006101000a81548173ffffffffffffffffffffffffffffffffffffffff021916908373ffffffffffffffffffffffffffffffffffffffff1602179055509050507fbb009ba26dc6423dfede0429c6ff1daf82c74412cc9475083521e8ea2aca0ee76000548888888888886040516106b39796959493929190611461565b60405180910390a16000808154809291906106cd906114de565b919050555050505050505050565b60005481565b60006001600083815260200190815260200160002090508060070160009054906101000a900460ff161561074a576040517f08c379a000000000000000000000000000000000000000000000000000000000815260040161074190611573565b60405180910390fd5b80600301543414610790576040517f08c379a0000000000000000000000000000000000000000000000000000000008152600401610787906115df565b60405180910390fd5b60018160070160006101000a81548160ff021916908315150217905550428160080181905550806003015481600a01819055503381600b0160006101000a81548173ffffffffffffffffffffffffffffffffffffffff021916908373ffffffffffffffffffffffffffffffffffffffff1602179055508060020160009054906101000a900473ffffffffffffffffffffffffffffffffffffffff1673ffffffffffffffffffffffffffffffffffffffff166108fc82600301549081150290604051600060405180830381858888f19350505050158015610874573d6000803e3d6000fd5b507fe88df70f334c7437cb932c4b6c8e26bb4b53c69830a65574244cd54d11bf891b82338360020160009054906101000a900473ffffffffffffffffffffffffffffffffffffffff166040516108cc939291906115ff565b60405180910390a15050565b60008054905090565b60006001600083815260200190815260200160002090508060070160009054906101000a900460ff16610949576040517f08c379a000000000000000000000000000000000000000000000000000000000815260040161094090611682565b60405180910390fd5b62278d00816005015461095c9190611351565b816008015461096b919061140b565b42106109ac576040517f08c379a00000000000000000000000000000000000000000000000000000000081526004016109a3906116ee565b60405180910390fd5b80600a01543411156109f3576040517f08c379a00000000000000000000000000000000000000000000000000000000081526004016109ea90611780565b60405180910390fd5b3481600a016000828254610a0791906117a0565b925050819055507f7928a2ad53fd8f4b3efa137a27f7fcb1693e8457037f2260c6678e2254ebe5a4823334604051610a41939291906117d4565b60405180910390a15050565b6001602052806000526040600020600091509050806000015490806001018054610a7690611160565b80601f0160208091040260200160405190810160405280929190818152602001828054610aa290611160565b8015610aef5780601f10610ac457610100808354040283529160200191610aef565b820191906000526020600020905b815481529060010190602001808311610ad257829003601f168201915b5050505050908060020160009054906101000a900473ffffffffffffffffffffffffffffffffffffffff1690806003015490806004015490806005015490806006018054610b3c90611160565b80601f0160208091040260200160405190810160405280929190818152602001828054610b6890611160565b8015610bb55780601f10610b8a57610100808354040283529160200191610bb5565b820191906000526020600020905b815481529060010190602001808311610b9857829003601f168201915b5050505050908060070160009054906101000a900460ff169080600801549080600901549080600a01549080600b0160009054906101000a900473ffffffffffffffffffffffffffffffffffffffff1690508c565b828054610c1690611160565b90600052602060002090601f016020900481019282610c385760008555610c7f565b82601f10610c5157805160ff1916838001178555610c7f565b82800160010185558215610c7f579182015b82811115610c7e578251825591602001919060010190610c63565b5b509050610c8c9190610c90565b5090565b5b80821115610ca9576000816000905550600101610c91565b5090565b6000604051905090565b600080fd5b600080fd5b6000819050919050565b610cd481610cc1565b8114610cdf57600080fd5b50565b600081359050610cf181610ccb565b92915050565b600060208284031215610d0d57610d0c610cb7565b5b6000610d1b84828501610ce2565b91505092915050565b610d2d81610cc1565b82525050565b600081519050919050565b600082825260208201905092915050565b60005b83811015610d6d578082015181840152602081019050610d52565b83811115610d7c576000848401525b50505050565b6000601f19601f8301169050919050565b6000610d9e82610d33565b610da88185610d3e565b9350610db8818560208601610d4f565b610dc181610d82565b840191505092915050565b600073ffffffffffffffffffffffffffffffffffffffff82169050919050565b6000610df782610dcc565b9050919050565b610e0781610dec565b82525050565b60008115159050919050565b610e2281610e0d565b82525050565b600061018082019050610e3e600083018f610d24565b8181036020830152610e50818e610d93565b9050610e5f604083018d610dfe565b610e6c606083018c610d24565b610e79608083018b610d24565b610e8660a083018a610d24565b81810360c0830152610e988189610d93565b9050610ea760e0830188610e19565b610eb5610100830187610d24565b610ec3610120830186610d24565b610ed1610140830185610d24565b610edf610160830184610dfe565b9d9c50505050505050505050505050565b600080fd5b600080fd5b7f4e487b7100000000000000000000000000000000000000000000000000000000600052604160045260246000fd5b610f3282610d82565b810181811067ffffffffffffffff82111715610f5157610f50610efa565b5b80604052505050565b6000610f64610cad565b9050610f708282610f29565b919050565b600067ffffffffffffffff821115610f9057610f8f610efa565b5b610f9982610d82565b9050602081019050919050565b82818337600083830152505050565b6000610fc8610fc384610f75565b610f5a565b905082815260208101848484011115610fe457610fe3610ef5565b5b610fef848285610fa6565b509392505050565b600082601f83011261100c5761100b610ef0565b5b813561101c848260208601610fb5565b91505092915050565b61102e81610dec565b811461103957600080fd5b50565b60008135905061104b81611025565b92915050565b60008060008060008060c0878903121561106e5761106d610cb7565b5b600087013567ffffffffffffffff81111561108c5761108b610cbc565b5b61109889828a01610ff7565b96505060206110a989828a0161103c565b95505060406110ba89828a01610ce2565b94505060606110cb89828a01610ce2565b93505060806110dc89828a01610ce2565b92505060a087013567ffffffffffffffff8111156110fd576110fc610cbc565b5b61110989828a01610ff7565b9150509295509295509295565b600060208201905061112b6000830184610d24565b92915050565b7f4e487b7100000000000000000000000000000000000000000000000000000000600052602260045260246000fd5b6000600282049050600182168061117857607f821691505b6020821081141561118c5761118b611131565b5b50919050565b7f416d6f756e74206d7573742062652067726561746572207468616e207a65726f600082015250565b60006111c8602083610d3e565b91506111d382611192565b602082019050919050565b600060208201905081810360008301526111f7816111bb565b9050919050565b7f496e7465726573742072617465206d757374206265206772656174657220746860008201527f616e207a65726f00000000000000000000000000000000000000000000000000602082015250565b600061125a602783610d3e565b9150611265826111fe565b604082019050919050565b600060208201905081810360008301526112898161124d565b9050919050565b7f4475726174696f6e206d7573742062652067726561746572207468616e207a6560008201527f726f000000000000000000000000000000000000000000000000000000000000602082015250565b60006112ec602283610d3e565b91506112f782611290565b604082019050919050565b6000602082019050818103600083015261131b816112df565b9050919050565b7f4e487b7100000000000000000000000000000000000000000000000000000000600052601160045260246000fd5b600061135c82610cc1565b915061136783610cc1565b9250817fffffffffffffffffffffffffffffffffffffffffffffffffffffffffffffffff04831182151516156113a05761139f611322565b5b828202905092915050565b7f4e487b7100000000000000000000000000000000000000000000000000000000600052601260045260246000fd5b60006113e582610cc1565b91506113f083610cc1565b925082611400576113ff6113ab565b5b828204905092915050565b600061141682610cc1565b915061142183610cc1565b9250827fffffffffffffffffffffffffffffffffffffffffffffffffffffffffffffffff0382111561145657611455611322565b5b828201905092915050565b600060e082019050611476600083018a610d24565b81810360208301526114888189610d93565b90506114976040830188610dfe565b6114a46060830187610d24565b6114b16080830186610d24565b6114be60a0830185610d24565b81810360c08301526114d08184610d93565b905098975050505050505050565b60006114e982610cc1565b91507fffffffffffffffffffffffffffffffffffffffffffffffffffffffffffffffff82141561151c5761151b611322565b5b600182019050919050565b7f4c6f616e20616c72656164792066756e64656400000000000000000000000000600082015250565b600061155d601383610d3e565b915061156882611527565b602082019050919050565b6000602082019050818103600083015261158c81611550565b9050919050565b7f496e636f727265637420616d6f756e7400000000000000000000000000000000600082015250565b60006115c9601083610d3e565b91506115d482611593565b602082019050919050565b600060208201905081810360008301526115f8816115bc565b9050919050565b60006060820190506116146000830186610d24565b6116216020830185610dfe565b61162e6040830184610dfe565b949350505050565b7f4c6f616e206e6f742066756e6465642079657400000000000000000000000000600082015250565b600061166c601383610d3e565b915061167782611636565b602082019050919050565b6000602082019050818103600083015261169b8161165f565b9050919050565b7f4c6f616e206475726174696f6e2068617320656e646564000000000000000000600082015250565b60006116d8601783610d3e565b91506116e3826116a2565b602082019050919050565b60006020820190508181036000830152611707816116cb565b9050919050565b7f43616e6e6f74207265706179206d6f7265207468616e2072656d61696e696e6760008201527f2064656274000000000000000000000000000000000000000000000000000000602082015250565b600061176a602583610d3e565b91506117758261170e565b604082019050919050565b600060208201905081810360008301526117998161175d565b9050919050565b60006117ab82610cc1565b91506117b683610cc1565b9250828210156117c9576117c8611322565b5b828203905092915050565b60006060820190506117e96000830186610d24565b6117f66020830185610dfe565b6118036040830184610d24565b94935050505056fea2646970667358221220a82c149118ceccfecad2f5298af9acf9f5442c067b01131fd8806896010d0d0864736f6c634300080c0033",
  "immutableReferences": {},
  "source": "// SPDX-License-Identifier: MIT\r\npragma solidity ^0.8.12;\r\n\r\ncontract P2PLending {\r\n    struct LoanRequest {\r\n        uint id;\r\n        string username;\r\n        address walletAddress;\r\n        uint amount;\r\n        uint interestRate;\r\n        uint duration; // in months\r\n        string purpose;\r\n        bool funded;\r\n        uint startTime;\r\n        uint monthlyPayment;\r\n        uint remainingDebt;\r\n        address lender; // New field to store lender's address\r\n    }\r\n\r\n    uint public nextRequestId;\r\n    mapping(uint => LoanRequest) public loanRequests;\r\n\r\n    event LoanRequestCreated(\r\n        uint id,\r\n        string username,\r\n        address walletAddress,\r\n        uint amount,\r\n        uint interestRate,\r\n        uint duration,\r\n        string purpose\r\n    );\r\n    event LoanFunded(uint id, address lender, address walletAddress); // Updated event\r\n    event LoanPartiallyRepaid(uint id, address payer, uint amount);\r\n\r\n    function createLoanRequest(\r\n        string memory _username,\r\n        address _walletAddress,\r\n        uint _amount,\r\n        uint _interestRate,\r\n        uint _duration,\r\n        string memory _purpose\r\n    ) external {\r\n        require(_amount > 0, \"Amount must be greater than zero\");\r\n        require(_interestRate > 0, \"Interest rate must be greater than zero\");\r\n        require(_duration > 0, \"Duration must be greater than zero\");\r\n\r\n        uint monthlyPayment = (_amount + (_amount * _interestRate / 100)) / _duration;\r\n\r\n        loanRequests[nextRequestId] = LoanRequest({\r\n            id: nextRequestId,\r\n            username: _username,\r\n            walletAddress: _walletAddress,\r\n            amount: _amount,\r\n            interestRate: _interestRate,\r\n            duration: _duration,\r\n            purpose: _purpose,\r\n            funded: false,\r\n            startTime: 0,\r\n            monthlyPayment: monthlyPayment,\r\n            remainingDebt: _amount,\r\n            lender: address(0) // Initialize lender as zero address\r\n        });\r\n\r\n        emit LoanRequestCreated(nextRequestId, _username, _walletAddress, _amount, _interestRate, _duration, _purpose);\r\n        nextRequestId++;\r\n    }\r\n\r\n    function fundLoan(uint _id) external payable {\r\n        LoanRequest storage request = loanRequests[_id];\r\n        require(!request.funded, \"Loan already funded\");\r\n        require(msg.value == request.amount, \"Incorrect amount\");\r\n\r\n        request.funded = true;\r\n        request.startTime = block.timestamp;\r\n        request.remainingDebt = request.amount;\r\n        request.lender = msg.sender; // Record lender's address\r\n\r\n        payable(request.walletAddress).transfer(request.amount);\r\n\r\n        emit LoanFunded(_id, msg.sender, request.walletAddress); // Emit lender's address\r\n    }\r\n\r\n    function repayLoan(uint _id) external payable {\r\n        LoanRequest storage request = loanRequests[_id];\r\n        require(request.funded, \"Loan not funded yet\");\r\n        require(block.timestamp < request.startTime + request.duration * 30 days, \"Loan duration has ended\");\r\n        require(msg.value <= request.remainingDebt, \"Cannot repay more than remaining debt\");\r\n\r\n        request.remainingDebt -= msg.value;\r\n\r\n        emit LoanPartiallyRepaid(_id, msg.sender, msg.value);\r\n    }\r\n\r\n    function getLoanRequest(uint _id) external view returns (\r\n        uint id,\r\n        string memory username,\r\n        address walletAddress,\r\n        uint amount,\r\n        uint interestRate,\r\n        uint duration,\r\n        string memory purpose,\r\n        bool funded,\r\n        uint startTime,\r\n        uint monthlyPayment,\r\n        uint remainingDebt,\r\n        address lender\r\n    ) {\r\n        LoanRequest storage request = loanRequests[_id];\r\n        return (\r\n            request.id,\r\n            request.username,\r\n            request.walletAddress,\r\n            request.amount,\r\n            request.interestRate,\r\n            request.duration,\r\n            request.purpose,\r\n            request.funded,\r\n            request.startTime,\r\n            request.monthlyPayment,\r\n            request.remainingDebt,\r\n            request.lender\r\n        );\r\n    }\r\n\r\n    function getNumLoanRequests() external view returns (uint) {\r\n        return nextRequestId;\r\n    }\r\n}\r\n",
  "sourcePath": "C:\\Users\\Kydo\\Desktop\\FinTech\\backend\\contracts\\P2PLending.sol",
  "compiler": {
    "name": "solc",
    "version": "0.8.12+commit.f00d7308.Emscripten.clang"
  },
  "schemaVersion": "3.4.16",
  "updatedAt": "2024-06-28T07:46:39.982Z",
  "networkType": "ethereum",
  "devdoc": {
    "kind": "dev",
    "methods": {},
    "version": 1
  },
  "userdoc": {
    "kind": "user",
    "methods": {},
    "version": 1
  }
}